:020000040801F1
:10000000005000201D090108150801081D080108FD
:10001000250801082D080108350801080000000026
:100020000000000000000000000000003D08010882
:10003000490801080000000055080108610801088E
:1000400065090108650901086509010865090108D4
:1000500065090108650901086509010865090108C4
:1000600065090108650901086509010865090108B4
:1000700065090108650901086509010865090108A4
:100080006509010865090108650901086509010894
:100090006509010865090108650901086509010884
:1000A0006509010865090108650901086509010874
:1000B0006509010865090108650901086D0801085D
:1000C0008108010865090108650901086509010839
:1000D0006509010865090108650901086509010844
:1000E00065090108650901086509010800000000AB
:1000F0000000000000000000000000000000000000
:0C01000000000000000000005FF808F1A3
:10010C0010B5054C237833B9044B13B10448AFF345
:10011C0000800123237010BD60000020000000004F
:10012C009848010808B5034B1BB103490348AFF3CA
:10013C00008008BD00000000640000209848010801
:10014C0080B586B000AF0346FB7100237B610023B2
:10015C003B6109E03B69344A934203D83B69013364
:10016C003B6101E000235AE04FF480712F4801F00D
:10017C00C7F80346012BEDD00023FB7325E00122C9
:10018C004FF40071294801F0D2F8012000F078F802
:10019C007B695B007B6100224FF40071234801F006
:1001AC00C6F8012000F06CF84FF480711F4801F084
:1001BC00A7F80346012B02D17B6901337B6197F9C8
:1001CC000F30DBB20133DBB2FB7397F90F30172B17
:1001DC00D5DD0023BB6014E001224FF400711348FD
:1001EC0001F0A5F8012000F04BF800224FF400714B
:1001FC000E4801F09CF8012000F042F8BB68013376
:10020C00BB60FB79BA689A42E6DB7B6983F4000336
:10021C007B614FF40051064801F0A1F87B69184648
:10022C001837BD4680BD00BF9F860100000C014001
:10023C000010014080B582B000AF786039607B68F7
:10024C00002B07DA3B685A1C3A602D221A707B6827
:10025C005B427B607A680949386803F067FE02E00C
:10026C003B6801333B603B681B78002BF8D13B6843
:10027C0000221A7000BF0837BD4680BDB048010887
:10028C0080B487B000AF7860214B1B6800225A62A3
:10029C0000237B6100233B610023FB817B681D4AAB
:1002AC00A2FB03239B093B617A681A4BA3FB021345
:1002BC009B094FF47A7101FB03F3D31AFB810DE018
:1002CC00134B1B685B6A40F2E632934206D9104B23
:1002DC001B6800225A627B6901337B617A693B6936
:1002EC009A4234BF01230023DAB2094B1B68596AC6
:1002FC00FB89994234BF01230023DBB21343DBB2E9
:10030C00002BDDD100BF00BF1C37BD4680BC704741
:10031C00D0000020D34D621080B582B000AF786061
:10032C00786801F071FA00BF0837BD4680BD000047
:10033C0080B582B000AF78600B46FB7013463B80F3
:10034C00FB78002B06D101230A220B490B4801F044
:10035C0077F90CE0FB78012B09D18021084800F0DB
:10036C00FEFF082301220749044801F0DBF900BF16
:10037C000837BD4680BD00BF180100207C0000205E
:10038C00000801402401002080B582B000AF00F0CD
:10039C00E5FA00F04BF862B600BF00F007F900F088
:1003AC00B9F800F089F81A4803F058FB194801F025
:1003BC002BFA0346002B01D000F094F9154801F0FC
:1003CC0058FA0320FFF7BCFE0346134A1360124B86
:1003DC001B6812491846FFF72DFF0221104800F048
:1003EC008FFF0346012BECD100F01EFD4FF00102F4
:1003FC004FF000030B49022000F0A6FC0A4B1B69CE
:10040C00094A23F00103136100F034FDD9E700BF62
:10041C00D00000207C0000202801002018010020C2
:10042C00000C014004F001080020024080B590B09F
:10043C0000AF07F1180328220021184603F096FD9F
:10044C003B1D00221A605A609A60DA601A6101231F
:10045C00BB614FF48033FB6100233B620123BB6221
:10046C0002237B634FF48033BB634FF4E013FB63D5
:10047C0007F11803184602F0A5FE0346002B01D025
:10048C0000F030F90F237B600223BB600023FB607C
:10049C004FF480633B6100237B613B1D02211846B6
:1004AC0003F012F90346002B01D000F01BF900BF3A
:1004BC004037BD4680BD000080B500AF124B134ADB
:1004CC001A60114B124A5A600F4B00229A600E4B65
:1004DC001022DA600C4B4FF480421A610A4B002256
:1004EC005A61094B00229A61074B0022DA61064BD4
:1004FC0080221A62044800F04BFF0346002B01D007
:10050C0000F0F0F800BF80BD7C00002000540040DB
:10051C00A086010080B586B000AF07F10803002269
:10052C001A605A609A60DA603B4600221A605A6080
:10053C001D4B4FF080421A601B4B47225A601A4BDE
:10054C0000229A60184B4FF6FF72DA60164B0022AD
:10055C001A61154B00229A61134803F02FFA0346D7
:10056C00002B01D000F0BEF84FF48053BB6007F1B4
:10057C00080319460C4803F0BBFA0346002B01D0C4
:10058C0000F0B0F800233B6000237B603B4619462B
:10059C00054803F06DFC0346002B01D000F0A2F8D7
:1005AC0000BF1837BD4680BDD000002080B588B094
:1005BC0000AF07F1100300221A605A609A60DA60EB
:1005CC00444B9B69434A43F010039361414B9B6935
:1005DC0003F01003FB60FB683E4B9B693D4A43F004
:1005EC00200393613B4B9B6903F02003BB60BB680A
:1005FC00384B9B69374A43F004039361354B9B6935
:10060C0003F004037B607B68324B9B69314A43F0F7
:10061C00080393612F4B9B6903F008033B603B6815
:10062C0000224FF400512C4800F081FE0022802162
:10063C002A4800F07CFE00224FF40071284800F09C
:10064C0076FE4FF400533B6101237B610023BB61B9
:10065C000223FB6107F1100319461F4800F0CCFC84
:10066C0080233B6101237B610023BB610223FB617F
:10067C0007F110031946194800F0BEFC01233B6139
:10068C0000237B610223BB6107F110031946144858
:10069C0000F0B2FC4FF480733B6100237B610023BC
:1006AC00BB6107F1100319460D4800F0A5FC4FF48F
:1006BC0000733B6101237B610023BB610223FB615F
:1006CC0007F110031946064800F096FC00BF2037CE
:1006DC00BD4680BD001002400010014000080140E2
:1006EC00000C014080B400AF72B600BF00BFFDE744
:1006FC0080B483B000AF0E4B9B690D4A43F00103ED
:10070C0093610B4B9B6903F001037B607B68084B87
:10071C00DB69074A43F08053D361054BDB6903F077
:10072C0080533B603B6800BF0C37BD4680BC7047B4
:10073C000010024080B588B000AF786007F110035C
:10074C0000221A605A609A60DA607B681B681D4A46
:10075C00934233D11C4B9B691B4A43F008039361B2
:10076C00194B9B6903F00803FB60FB68C0233B61DA
:10077C0012237B610323FB6107F110031946134815
:10078C0000F03AFC104BDB690F4A43F40013D361C1
:10079C000D4BDB6903F40013BB60BB680022002126
:1007AC001F2000F014FA1F2000F02DFA0022002167
:1007BC00202000F00CFA202000F025FA00BF203792
:1007CC00BD4680BD0054004000100240000C0140AA
:1007DC0080B485B000AF78607B681B68B3F1804F44
:1007EC000BD1084BDB69074A43F00103D361054B7E
:1007FC00DB6903F00103FB60FB6800BF1437BD46E7
:10080C0080BC70470010024080B400AF00BFFDE711
:10081C0080B400AF00BFFDE780B400AF00BFFDE7C0
:10082C0080B400AF00BFFDE780B400AF00BFFDE7B0
:10083C0080B400AF00BFBD4680BC704780B400AF31
:10084C0000BFBD4680BC704780B400AF00BFBD4642
:10085C0080BC704780B500AF00F0C6F800BF80BD0B
:10086C0080B500AF024801F004F800BF80BD00BFA6
:10087C007C00002080B500AF024801F04DF900BFAC
:10088C0080BD00BF7C00002080B586B000AF7860D2
:10089C00144A154BD31A7B617B693B61134B1B6864
:1008AC00002B02D1114B124A1A60104B1A687B684C
:1008BC0013443A699A4207D203F060FB03460C22B8
:1008CC001A604FF0FF3309E0084B1B68FB60074BC5
:1008DC001A687B681344054A1360FB68184618377E
:1008EC00BD4680BD00500020000400002C010020FB
:1008FC00A002002080B400AF034B044A9A6000BFF2
:10090C00BD4680BC704700BF00ED00E00000010850
:10091C00FFF7F0FF0B480C490C4A002302E0D458B7
:10092C00C4500433C4188C42F9D3094A094C00232F
:10093C0001E013600432A242FBD303F025FBFFF766
:10094C0023FD7047000000205C0000201C490108BA
:10095C0060000020A0020020FEE7000080B500AF80
:10096C00084B1B68074A43F010031360032000F088
:10097C0023F90F2000F008F8FFF7BAFE0023184601
:10098C0080BD00BF0020024080B582B000AF78600F
:10099C00124B1A68124B1B7819464FF47A73B3FB3F
:1009AC00F1F3B2FBF3F3184600F03BF90346002BCE
:1009BC0001D001230EE07B680F2B0AD80022796846
:1009CC004FF0FF3000F003F9064A7B6813600023F8
:1009DC0000E0012318460837BD4680BD000000200A
:1009EC00080000200400002080B400AF054B1B78E9
:1009FC001A46054B1B681344034A136000BFBD46DF
:100A0C0080BC7047080000203001002080B400AF8B
:100A1C00024B1B681846BD4680BC70473001002055
:100A2C0080B485B000AF78607B6803F00703FB608F
:100A3C000C4BDB68BB60BA684FF6FF031340BB601E
:100A4C00FB681A02BB68134343F0BF6343F40033E3
:100A5C00BB60044ABB68D36000BF1437BD4680BC82
:100A6C00704700BF00ED00E080B400AF044BDB68C2
:100A7C001B0A03F007031846BD4680BC704700BF35
:100A8C0000ED00E080B483B000AF0346FB7197F932
:100A9C000730002B0BDBFB7903F01F02064997F99B
:100AAC0007305B09012000FA02F241F8232000BF55
:100ABC000C37BD4680BC704700E100E080B483B0C9
:100ACC0000AF03463960FB7197F90730002B0ADB46
:100ADC003B68DAB20C4997F907301201D2B20B44D9
:100AEC0083F800230AE03B68DAB20849FB7903F08B
:100AFC000F03043B1201D2B20B441A7600BF0C3721
:100B0C00BD4680BC704700BF00E100E000ED00E096
:100B1C0080B489B000AFF860B9607A60FB6803F00C
:100B2C000703FB61FB69C3F10703042B28BF0423F4
:100B3C00BB61FB690433062B02D9FB69033B00E064
:100B4C0000237B614FF0FF32BB6902FA03F3DA43F7
:100B5C00BB681A407B699A404FF0FF317B6901FA00
:100B6C0003F3D9437B680B40134318462437BD4627
:100B7C0080BC704780B582B000AF78607B68013B69
:100B8C00B3F1807F01D301230FE00A4A7B68013B5C
:100B9C0053600F214FF0FF30FFF790FF054B002201
:100BAC009A60044B07221A60002318460837BD468A
:100BBC0080BD00BF10E000E080B582B000AF78606F
:100BCC007868FFF72DFF00BF0837BD4680BD80B5A4
:100BDC0086B000AF0346B9607A60FB7300237B617B
:100BEC00FFF742FF78617A68B9687869FFF790FF80
:100BFC00024697F90F3011461846FFF75FFF00BF0A
:100C0C001837BD4680BD80B582B000AF0346FB717E
:100C1C0097F907301846FFF735FF00BF0837BD4678
:100C2C0080BD80B582B000AF78607868FFF7A2FF16
:100C3C00034618460837BD4680BD000080B584B019
:100C4C0000AF78600023FB737B6893F82130DBB234
:100C5C00022B05D07B6804229A630123FB7351E0BD
:100C6C007B681B681A687B681B6822F00E021A608E
:100C7C007B681B681A687B681B6822F001021A608B
:100C8C007B681B68224A934229D07B681B68214AE7
:100C9C00934222D07B681B681F4A93421AD07B6810
:100CAC001B681E4A934212D07B681B681C4A9342F5
:100CBC000AD07B681B681B4A934202D14FF4801305
:100CCC000EE04FF080730BE04FF4803308E04FF4EC
:100CDC00805305E04FF4807302E0102300E0012301
:100CEC00114A53607B68012283F821207B68002223
:100CFC0083F820207B685B6B002B03D07B685B6BDD
:100D0C0078689847FB7B18461037BD4680BD00BFFE
:100D1C00080002401C000240300002404400024027
:100D2C00580002406C0002400000024080B483B0C6
:100D3C0000AF78607B6893F82130DBB218460C3733
:100D4C00BD4680BC70470000F0B587B000AFF860BE
:100D5C00B960C7E900230123FB750023BB75002391
:100D6C007B752F4B1B7E012B01D1022354E02C4BA6
:100D7C0001221A764CF2503000F0A8F80346FB75AD
:100D8C00FB7D002B44D1FB68012B02D101237B7529
:100D9C0007E0FB68022B02D102237B7501E00423E0
:100DAC007B750023BB752DE0BB7D5A00BB6802EB45
:100DBC00030CBB7D1901D7E90023C1F12006A1F179
:100DCC00200022FA01F403FA06F6344323FA00F069
:100DDC00044323FA01F5A3B21946604600F05AF811
:100DEC004CF2503000F072F80346FB750D4B1B694A
:100DFC000C4A23F001031361FB7D002B07D1BB7D53
:100E0C000133BB75BA7D7B7D9A42CDD300E000BF28
:100E1C00034B00221A76FB7D18461C37BD46F0BDED
:100E2C00380100200020024080B483B000AF0023C2
:100E3C00FB710D4B1B6903F08003002B0DD00A4B8B
:100E4C000A4A5A60084B0A4A5A60074B1B6903F05E
:100E5C008003002B01D00123FB71FB7918460C3762
:100E6C00BD4680BC704700BF00200240230167458F
:100E7C00AB89EFCD80B400AF054B1B69044A43F03E
:100E8C008003136100231846BD4680BC704700BF29
:100E9C000020024080B483B000AF78600B467B80AA
:100EAC00084B0022DA61084B1B69074A43F0010327
:100EBC0013617B687A881A8000BF0C37BD4680BCF2
:100ECC00704700BF380100200020024080B584B07C
:100EDC0000AF7860FFF79AFDF86010E07B68B3F123
:100EEC00FF3F0CD07B68002B07D0FFF78FFD02462D
:100EFC00FB68D31A7A689A4201D2032325E0154B7A
:100F0C00DB6803F00103002BE8D1124BDB6803F024
:100F1C002003002B02D00F4B2022DA600D4BDB6834
:100F2C0003F01003002B0BD10A4BDB6903F0010318
:100F3C00002B05D1074BDB6803F00403002B03D017
:100F4C0000F00AF8012300E0002318461037BD46D4
:100F5C0080BD00BF0020024080B483B000AF0023EE
:100F6C007B60234BDB6803F01003002B09D0214B73
:100F7C00DB6943F002031F4AD3617B6843F0100323
:100F8C007B601B4BDB6803F00403002B09D0194B6F
:100F9C00DB6943F00103174AD3617B6843F0040318
:100FAC007B60134BDB6903F00103002B0BD0114B5F
:100FBC00DB6943F004030F4AD3610D4BDB690C4A28
:100FCC0023F00103D3617B6840F20112934206D1F6
:100FDC00074BDB69064A23F00103D36102E0044AA4
:100FEC007B68D36000BF0C37BD4680BC704700BF28
:100FFC00002002403801002080B48BB000AF786034
:10100C00396000237B6200233B6269E101227B6A29
:10101C0002FA03F3FB613B681B68FA691340BB617E
:10102C00BA69FB699A4240F058813B685B689A4AFE
:10103C0093425ED0984A934275D8984A934258D0BE
:10104C00964A93426FD8964A934252D0944A93420E
:10105C0069D8944A93424CD0924A934263D8924AAC
:10106C00934246D0904A93425DD8122B2AD8122B29
:10107C0059D801A252F823F0FF100108D910010829
:10108C00EB1001082D11010833110108331101086F
:10109C003311010833110108331101083311010810
:1010AC003311010833110108331101083311010800
:1010BC00331101083311010833110108E110010843
:1010CC00F5100108794A934213D02CE03B68DB6899
:1010DC003B6229E03B68DB6804333B6224E03B68FD
:1010EC00DB6808333B621FE03B68DB680C333B6218
:1010FC001AE03B689B68002B02D104233B6213E08F
:10110C003B689B68012B05D108233B627B68FA691D
:10111C001A6109E008233B627B68FA695A6103E0B3
:10112C0000233B6200E000BFBB69FF2B01D87B684A
:10113C0001E07B6804337B61BB69FF2B02D87B6ABF
:10114C009B0002E07B6A083B9B003B617B691A6851
:10115C000F213B6901FA03F3DB431A40396A3B69FF
:10116C0001FA03F31A437B691A603B685B6803F06E
:10117C008053002B00F0B1804D4B9B694C4A43F0DF
:10118C00010393614A4B9B6903F00103BB60BB688D
:10119C00484A7B6A9B08023352F82330FB607B6A17
:1011AC0003F003039B000F2202FA03F3DB43FA68FC
:1011BC001340FB607B68404A934213D07B683F4AE4
:1011CC0093420DD07B683E4A934207D07B683D4AE0
:1011DC00934201D1032306E0042304E0022302E03E
:1011EC00012300E000237A6A02F00302920093408C
:1011FC00FA681343FB602F497B6A9B080233FA6839
:10120C0041F823203B685B6803F48013002B06D065
:10121C002D4B9A682C49BB6913438B6006E02A4B13
:10122C009A68BB69DB43284913408B603B685B6859
:10123C0003F40013002B06D0234BDA682249BB6958
:10124C001343CB6006E0204BDA68BB69DB431E49D5
:10125C001340CB603B685B6803F40033002B06D073
:10126C00194B5A681849BB6913434B6006E0164B7F
:10127C005A68BB69DB43144913404B603B685B689D
:10128C0003F48033002B21D00F4B1A680E49BB6935
:10129C0013430B6021E000BF00003210000031103E
:1012AC00000022100000211000001210000011108C
:1012BC00001002400000014000080140000C0140F9
:1012CC000010014000140140000401400B4B1A684F
:1012DC00BB69DB43094913400B607B6A01337B62BA
:1012EC003B681A687B6A22FA03F3002B7FF48EAEFC
:1012FC0000BF00BF2C37BD4680BC704700040140C6
:10130C0080B485B000AF78600B467B807B689A68B0
:10131C007B881340002B02D00123FB7301E00023D8
:10132C00FB73FB7B18461437BD4680BC704780B4FA
:10133C0083B000AF78600B467B8013467B707B7864
:10134C00002B03D07A887B681A6103E07B881A042F
:10135C007B681A6100BF0C37BD4680BC704780B4F7
:10136C0085B000AF78600B467B807B68DB68FB60E8
:10137C007A88FB6813401A04FB68D9437B880B40BE
:10138C001A437B681A6100BF1437BD4680BC704796
:10139C0080B584B000AF78607B68002B01D101234D
:1013AC002BE17B6893F83D30DBB2002B06D17B68D8
:1013BC00002283F83C207868FFF7BCF97B68242274
:1013CC0083F83D207B681B681A687B681B6822F0D9
:1013DC0001021A607B681B681A687B681B6842F400
:1013EC0000421A607B681B681A687B681B6822F4D1
:1013FC0000421A6002F0B0FAF8607B685B68814AC0
:10140C00934207D8FB68804A934294BF0123002380
:10141C00DBB206E0FB687D4A934294BF01230023B4
:10142C00DBB2002B01D00123E7E0FB68784AA2FB7A
:10143C0003239B0CBB607B681B685B6823F03F013C
:10144C007B681B68BA680A435A607B681B681B6A16
:10145C0023F03F017B685B686A4A934202D8BB6801
:10146C00013309E0BB684FF4967202FB03F3694A3F
:10147C00A2FB03239B0901337A6812680B431362A6
:10148C007B681B68DB6923F44F4222F0FF027B6808
:10149C005B685C498B4219D8FB68591E7B685B689A
:1014AC005B00B1FBF3F3591C40F6FC730B40002BB3
:1014BC000AD0FB68591E7B685B685B00B1FBF3F3D9
:1014CC000133C3F30B0351E004234FE07B689B68AB
:1014DC00002B11D1FB68581E7B6859680B465B00CA
:1014EC000B44B0FBF3F30133C3F30B03002B0CBF22
:1014FC0001230023DBB212E0FB68581E7B6859689D
:10150C000B469B000B4499000B44B0FBF3F30133E7
:10151C00C3F30B03002B0CBF01230023DBB2002B06
:10152C0001D0012322E07B689B68002B0ED1FB6865
:10153C00581E7B6859680B465B000B44B0FBF3F3F9
:10154C000133C3F30B0343F400430FE0FB68581E55
:10155C007B6859680B469B000B4499000B44B0FB0D
:10156C00F3F30133C3F30B0343F440437968096885
:10157C001343CB617B681B681B6823F0C0017B683D
:10158C00DA697B681B6A1A437B681B680A431A601A
:10159C007B681B689B6823F4034323F0FF037A6882
:1015AC0011697A68D26811437A6812680B439360A8
:1015BC007B681B68DB6823F0FF017B685A697B68DA
:1015CC009B691A437B681B680A43DA607B681B685B
:1015DC001A687B681B6842F001021A607B68002263
:1015EC001A647B68202283F83D207B6800221A63F2
:1015FC007B68002283F83E20002318461037BD4636
:10160C0080BD00BFA08601007F841E00FF083D0046
:10161C0083DE1B43D34D621080B483B000AF78607F
:10162C007B681B685B6903F08003802B03D17B68AC
:10163C001B6800221A6100BF0C37BD4680BC704786
:10164C0080B487B000AFF860B9603B601346FB8094
:10165C00FB6893F83D30DBB203F02803282B5BD1F9
:10166C00BB68002B02D0FB88002B01D1012354E076
:10167C00FB6893F83C30012B01D102234DE0FB6851
:10168C00012283F83C20FB681B681B6803F00103F4
:10169C00012B07D0FB681B681A68FB681B6842F0BB
:1016AC0001021A60FB681B681A68FB681B6822F44D
:1016BC0000621A60FB68292283F83D20FB68202217
:1016CC0083F83E20FB6800221A64FB68BA685A62F1
:1016DC00FB68FA885A85FB685B8D9AB2FB681A85A1
:1016EC00FB683A68DA6200237B61FB681B685B6904
:1016FC007B61FB681B689B697B617B69FB680022D3
:10170C0083F83C20FB681B685A68FB681B6842F432
:10171C00E0625A60002300E0022318461C37BD46E5
:10172C0080BC704780B487B000AFF860B9603B6094
:10173C001346FB80FB6893F83D30DBB203F02803C3
:10174C00282B5BD1BB68002B02D0FB88002B01D16E
:10175C00012354E0FB6893F83C30012B01D10223A8
:10176C004DE0FB68012283F83C20FB681B681B687A
:10177C0003F00103012B07D0FB681B681A68FB6898
:10178C001B6842F001021A60FB681B681A68FB6850
:10179C001B6822F400621A60FB682A2283F83D2041
:1017AC00FB68202283F83E20FB6800221A64FB6849
:1017BC00BA685A62FB68FA885A85FB685B8D9AB2E4
:1017CC00FB681A85FB683A68DA6200237B61FB6868
:1017DC001B685B697B61FB681B689B697B617B6930
:1017EC00FB68002283F83C20FB681B685A68FB6886
:1017FC001B6842F4E0625A60002300E002231846A2
:10180C001C37BD4680BC704780B483B000AF786095
:10181C007B6893F83D30DBB2202B24D17B682822E7
:10182C0083F83D207B681B681B6803F00103012BC8
:10183C0007D07B681B681A687B681B6842F0010242
:10184C001A607B681B681A687B681B6842F48062AC
:10185C001A607B681B685A687B681B6842F440728C
:10186C005A60002300E0022318460C37BD4680BCAA
:10187C00704780B588B000AF78600023BB617B688F
:10188C001B685B687B617B68DB6A3B617B6893F8F8
:10189C003E30FB737B6893F83D30BB73FB7B102BA6
:1018AC0003D0FB7B402B40F0B1807B681B689B69AD
:1018BC00BB617B681B685B69FB61FB6903F001031F
:1018CC00002B0DD13B69B3F52A0F03D03B69B3F163
:1018DC002A4F01D1012300E00023012B00F01481D9
:1018EC00FB6903F00103002B0BD07B6903F400733D
:1018FC00002B06D0786801F04BFC786800F04AFDAC
:10190C0083E0FB6903F00803002B08D07B6903F428
:10191C000073002B03D0786800F0C1FD75E0FB6903
:10192C0003F00203002B08D07B6903F40073002B37
:10193C0003D0786800F0DCFD67E0BB6903F00403BA
:10194C00002B36D07B681B685B6803F40063B3F52F
:10195C00006F00F0DB80FB6903F08003002B0DD0DF
:10196C007B6903F48063002B08D0FB6903F004034C
:10197C00002B03D1786800F0BEF946E0FB6903F058
:10198C000403002B00F0C2807B6903F40073002B6E
:10199C0000F0BC80BB7B212B03D1786800F047FAA8
:1019AC00B4E0FB7B402B40F0B180786800F0B5FAD6
:1019BC00ACE07B681B685B6803F40063B3F5006FF5
:1019CC0000F0A480FB6903F04003002B0DD07B6971
:1019DC0003F48063002B08D0FB6903F00403002B95
:1019EC0003D1786800F031FB0FE0FB6903F00403CE
:1019FC00002B00F08B807B6903F40073002B00F04C
:101A0C008580786800F0DCFB80E07FE07B681B6CF5
:101A1C00002B04D07B681B685B69FB6107E07B686B
:101A2C001B689B69BB617B681B685B69FB61FB691D
:101A3C0003F00203002B11D07B6903F40073002B1D
:101A4C000CD07B681B6C002B03D07B681B689B69DC
:101A5C00BB61B969786800F0A2FF5AE0FB6903F03A
:101A6C001003002B08D07B6903F40073002B03D008
:101A7C00786800F0DDFF4CE0BB7B212B02D0BB7BF8
:101A8C00292B20D1FB6903F08003002B0DD07B693F
:101A9C0003F48063002B08D0FB6903F00403002BD4
:101AAC0003D1786800F0BFFE32E0FB6903F0040359
:101ABC00002B2DD07B6903F40073002B28D07868A1
:101ACC0000F0EEFE24E0FB6903F04003002B0DD088
:101ADC007B6903F48063002B08D0FB6903F00403DB
:101AEC00002B03D1786800F0FBFE12E0FB6903F0D9
:101AFC000403002B0DD07B6903F40073002B08D07A
:101B0C00786800F02BFF04E000BF02E000BF00E0AB
:101B1C0000BF2037BD4680BD80B58AB000AF78606D
:101B2C007B681B685B693B627B681B685B68FB615D
:101B3C0000237B627B6893F83E30FB763B6A03F4B0
:101B4C008073002B15D0FB6903F48073002B10D02D
:101B5C007B6A43F001037B627B681B686FF48072C5
:101B6C005A617B681B681A687B681B6842F40042E8
:101B7C001A603B6A03F40073002B0DD0FB6903F46D
:101B8C008073002B08D07B6A43F002037B627B6876
:101B9C001B686FF400725A613B6A03F48063002B7C
:101BAC003ED0FB6903F48073002B39D0FB7EBB76EF
:101BBC007B685B8D9BB27B617B6893F83D30FB74DB
:101BCC007B681B6BFB60BB7E202B12D17B69002BCF
:101BDC000FD1FB7C212B08D0FB7C292B05D0FB7C67
:101BEC00282B06D1FB68212B03D1786801F050F823
:101BFC0016E07B681B686FF480625A617B6A43F065
:101C0C0004037B62FB7E102B02D0FB7E402B07D1A2
:101C1C007B681B681A687B681B6842F400721A6048
:101C2C003B6A03F40063002B0DD0FB6903F4807353
:101C3C00002B08D07B6A43F008037B627B681B682F
:101C4C006FF400625A617B6A002B08D07B681A6CB7
:101C5C007B6A1A437B681A64786801F08DF800BFC0
:101C6C002837BD4680BD80B483B000AF786000BF1C
:101C7C000C37BD4680BC704780B483B000AF786031
:101C8C0000BF0C37BD4680BC704780B483B000AF3A
:101C9C00786000BF0C37BD4680BC704780B483B001
:101CAC0000AF786000BF0C37BD4680BC704780B475
:101CBC0083B000AF786000BF0C37BD4680BC704766
:101CCC0080B483B000AF786000BF0C37BD4680BCD9
:101CDC00704780B483B000AF786000BF0C37BD464E
:101CEC0080BC704780B483B000AF786000BF0C3705
:101CFC00BD4680BC704780B584B000AF78607B680F
:101D0C0093F83D30FB737B6893F83E30BB737B6874
:101D1C00DB6ABB607B681B8D002B50D1FB7B212BBE
:101D2C004DD1BB68082B1DD0BB68202B1AD0BB68CB
:101D3C0013F5803F16D07B681B685A687B681B685C
:101D4C0022F4E0625A607B6811221A637B680022DD
:101D5C0083F83E207B68202283F83D207868FFF7CB
:101D6C0082FF60E07B681B685A687B681B6822F402
:101D7C00E0625A607B681B681A687B681B6842F4D7
:101D8C0000721A607B6800221A637B68202283F839
:101D9C003D207B6893F83E30DBB2402B07D17B684B
:101DAC00002283F83E207868FFF781FF3BE07B68D8
:101DBC00002283F83E207868FFF755FF33E0FB7B69
:101DCC00212B05D0BB7B402B2DD1FB7B222B2AD189
:101DDC007B685B8D9BB2002B08D17B681B685A68B3
:101DEC007B681B6822F480625A601CE07B6893F865
:101DFC003E30DBB2402B03D1786800F08EF812E055
:101E0C007B685B6A1A787B681B681A617B685B6A03
:101E1C005A1C7B685A627B685B8D9BB2013B9AB201
:101E2C007B685A85FFE700BF1037BD4680BD80B583
:101E3C0084B000AF78607B68DB6AFB607B6893F8EA
:101E4C003D30DBB2212B64D17B685B8D9BB2002BC8
:101E5C0012D07B685B6A1A787B681B681A617B6896
:101E6C005B6A5A1C7B685A627B685B8D9BB2013B38
:101E7C009AB27B685A854CE0FB68082B1DD0FB6836
:101E8C00202B1AD0FB6813F5803F16D07B681B689B
:101E9C005A687B681B6822F4E0625A607B681122E6
:101EAC001A637B68002283F83E207B68202283F82B
:101EBC003D207868FFF7D7FE2BE07B681B685A68DB
:101ECC007B681B6822F4E0625A607B681B681A68A6
:101EDC007B681B6842F400721A607B6800221A63EC
:101EEC007B68202283F83D207B6893F83E30DBB280
:101EFC00402B07D17B68002283F83E207868FFF7DF
:101F0C00D6FE06E07B68002283F83E207868FFF757
:101F1C00AAFE00BF1037BD4680BD80B584B000AFAF
:101F2C0078607B6893F83D30FB737B681B6D002BEE
:101F3C001DD17B68DB6C012B0BD17B689B6CDAB2FF
:101F4C007B681B681A617B681B6D9A1C7B681A6521
:101F5C0077E07B689B6C9BB21B12DAB27B681B68C8
:101F6C001A617B681B6D5A1C7B681A6569E07B687B
:101F7C001B6D012B0BD17B689B6CDAB27B681B68E9
:101F8C001A617B681B6D5A1C7B681A6559E07B686B
:101F9C001B6D022B52D1FB7B222B0DD17B681B6856
:101FAC001A687B681B6842F480721A607B681B6D30
:101FBC005A1C7B681A6544E07B685B8D9BB2002BD6
:101FCC0015D0FB7B212B12D17B685B6A1A787B685E
:101FDC001B681A617B685B6A5A1C7B685A627B6857
:101FEC005B8D9BB2013B9AB27B685A8529E07B687A
:101FFC005B8D9BB2002B24D1FB7B212B21D17B68E9
:10200C001B685A687B681B6822F4E0625A607B6824
:10201C001B681A687B681B6842F400721A607B6844
:10202C0000221A637B68202283F83D207B68002203
:10203C0083F83E207868FFF73AFE02E07868FFF7F5
:10204C00EBFA00BF1037BD4680BD80B584B000AF41
:10205C0078607B6893F83D30DBB2222B40F0AC808B
:10206C007B685B8D9BB2FB60FB68032B21D97B6883
:10207C001B681A697B685B6AD2B21A707B685B6AF0
:10208C005A1C7B685A627B685B8D9BB2013B9AB28F
:10209C007B685A857B685B8D9BB2032B40F08C80F0
:1020AC007B681B685A687B681B6822F480625A60E4
:1020BC0082E07B68DB6A022B75D0FB68012B02D0B7
:1020CC00FB68002B6FD1786801F030F80346002BC9
:1020DC0042D17B681B681A687B681B6822F480629B
:1020EC001A607B681B685A687B681B6822F4E06284
:1020FC005A607B681B681A697B685B6AD2B21A707B
:10210C007B685B6A5A1C7B685A627B685B8D9BB2EE
:10211C00013B9AB27B685A857B68202283F83D206C
:10212C007B6893F83E30DBB2402B0AD17B680022EF
:10213C0083F83E207B6800221A637868FFF7C0FDA5
:10214C003AE07B68002283F83E207B6812221A63F7
:10215C007868FFF791FD2FE07B681B685A687B68F5
:10216C001B6822F4E0625A607B681B681A697B6802
:10217C005B6AD2B21A707B685B6A5A1C7B685A62C3
:10218C007B685B8D9BB2013B9AB27B685A857B68FE
:10219C00202283F83D207B68002283F83E2078685B
:1021AC00FFF797FD08E07B681B685A687B681B6823
:1021BC0022F480625A60FFE700BF1037BD4680BD35
:1021CC0080B584B000AF78607B68DB6AFB607B68AD
:1021DC005B8D9BB2042B1BD17B681B685A687B6898
:1021EC001B6822F480625A607B681B681A697B68E2
:1021FC005B6AD2B21A707B685B6A5A1C7B685A6243
:10220C007B685B8D9BB2013B9AB27B685A85BDE0C3
:10221C007B685B8D9BB2032B29D17B681B685A684A
:10222C007B681B6822F480625A60FB68042B0AD01E
:10223C00FB68022B07D07B681B681A687B681B68DD
:10224C0022F480621A607B681B681A697B685B6A7F
:10225C00D2B21A707B685B6A5A1C7B685A627B68C4
:10226C005B8D9BB2013B9AB27B685A858EE07B6892
:10227C005B8D9BB2022B76D1FB68012B02D0FB68E5
:10228C00102B08D17B681B681A687B681B6822F4CA
:10229C0080621A6019E0FB68042B02D0FB68022BE9
:1022AC0008D17B681B681A687B681B6842F48062E3
:1022BC001A600AE0FB68102B07D07B681B681A6851
:1022CC007B681B6842F400721A607B681B681A6991
:1022DC007B685B6AD2B21A707B685B6A5A1C7B683B
:1022EC005A627B685B8D9BB2013B9AB27B685A85C4
:1022FC007B681B681A697B685B6AD2B21A707B6850
:10230C005B6A5A1C7B685A627B685B8D9BB2013B93
:10231C009AB27B685A857B681B685A687B681B6815
:10232C0022F440725A607B68202283F83D207B683F
:10233C0093F83E30DBB2402B0AD17B68002283F845
:10234C003E207B6800221A637868FFF7B9FC1DE019
:10235C007B68002283F83E207B6812221A6378681F
:10236C00FFF78AFC12E07B681B681A697B685B6A62
:10237C00D2B21A707B685B6A5A1C7B685A627B68A3
:10238C005B8D9BB2013B9AB27B685A8500BF1037BC
:10239C00BD4680BD80B483B000AF78607B6893F895
:1023AC003E30DBB2402B17D17B681B6D002B09D163
:1023BC007B685B6CDBB21A467B681B6802F0FE0222
:1023CC001A6167E07B685B6CDBB243F00103DAB245
:1023DC007B681B681A615DE07B681B69B3F5804FF5
:1023EC0033D17B6893F83D30DBB2212B09D17B686C
:1023FC005B6CDBB21A467B681B6802F0FE021A614A
:10240C0008E07B685B6CDBB243F00103DAB27B68FB
:10241C001B681A617B685B6B002B04D07B685B6B61
:10242C009B6A002B08D17B689B6B002B32D07B689E
:10243C009B6B9B6A002B2DD07B681B685A687B6852
:10244C001B6842F400625A6024E07B681B6D002B11
:10245C000ED17B685B6C9BB2DB11DBB203F0060325
:10246C00DBB263F00F03DAB27B681B681A6111E010
:10247C007B681B6D012B0DD17B685B6C9BB2DB11F8
:10248C00DBB203F00603DBB263F00E03DAB27B6857
:10249C001B681A6100BF0C37BD4680BC704780B406
:1024AC0083B000AF78607B685B6CDAB27B681B68CA
:1024BC001A617B685B6B002B04D07B685B6B9B6A3F
:1024CC00002B08D17B689B6B002B0CD07B689B6B23
:1024DC009B6A002B07D07B681B685A687B681B685B
:1024EC0042F400625A6000BF0C37BD4680BC704796
:1024FC0080B491B000AF78607B6893F83E3087F879
:10250C003F307B68DB6ABB637B681B6B7B637B68E0
:10251C0093F83D30DBB2222B40F074817B681B6D4D
:10252C00002B0FD197F83F30402B0BD100233B638E
:10253C007B681B685B693B637B681B689B693B63BF
:10254C003B6B6BE17B681B6D002B1DD17B681B69A2
:10255C00B3F5404F18D10023FB627B681B685B69A5
:10256C00FB627B681B689B69FB62FB6A7B681B6870
:10257C001A687B681B6842F480721A607B681B6D5A
:10258C005A1C7B681A6549E17B685B8D9BB2002BFA
:10259C0013D10023BB627B681B685B69BB627B68E1
:1025AC001B689B69BB62BB6A7B681B681A687B688B
:1025BC001B6842F400721A6020E17B685B8D9BB251
:1025CC00012B40F08A80BB6B13F5803F37D17B68C1
:1025DC001B681A687B681B6822F480621A607B682F
:1025EC001B685B6803F40063B3F5006F13D17B6861
:1025FC001B681A687B681B6822F480621A600023CF
:10260C007B627B681B685B697B627B681B689B6970
:10261C007B627B6AF2E000233B627B681B685B6930
:10262C003B627B681B689B693B623B6A7B681B68EF
:10263C001A687B681B6842F400721A60DEE0BB6BA0
:10264C00082B2ED0BB6B202B2BD07B6B122B02D1EB
:10265C00BB6B012B25D1BB6B042B0ED0BB6B022BA0
:10266C000BD0BB6B102B08D07B681B681A687B687F
:10267C001B6822F480621A6007E07B681B681A688A
:10268C007B681B6842F480621A600023FB617B68E4
:10269C001B685B69FB617B681B689B69FB61FB6961
:1026AC00ACE07B681B681A687B681B6822F480624C
:1026BC001A600023BB617B681B685B69BB617B682C
:1026CC001B689B69BB61BB697B681B681A687B686C
:1026DC001B6842F400721A6090E07B685B8D9BB2C1
:1026EC00022B58D1BB6B042B21D0BB6B022B1ED001
:1026FC00BB6B102B1BD07B681B681A687B681B6834
:10270C0042F400621A6000237B617B681B685B6982
:10271C007B617B681B689B697B617B697B681B6841
:10272C001A687B681B6822F480621A6012E07B686E
:10273C001B681A687B681B6842F480621A6000236D
:10274C003B617B681B685B693B617B681B689B69B1
:10275C003B613B697B681B685B6803F40063B3F502
:10276C00006F4BD1BB6B13F5803F0BD0BB6B012BB8
:10277C0008D0BB6B082B05D0BB6B102B02D0BB6BEE
:10278C00202B3BD17B681B685A687B681B6842F422
:10279C0080525A6032E07B681B681A687B681B6841
:1027AC0042F480621A607B681B685B6803F4006308
:1027BC00B3F5006F17D1BB6B13F5803F0BD0BB6B20
:1027CC00012B08D0BB6B082B05D0BB6B102B02D098
:1027DC00BB6B202B07D17B681B685A687B681B6816
:1027EC0042F480525A600023FB607B681B685B6973
:1027FC00FB607B681B689B69FB60FB687B68002245
:10280C001A650BE00023BB607B681B685B69BB60CF
:10281C007B681B689B69BB60BB68FFE700BF4437E4
:10282C00BD4680BC704780B584B000AF78607B68D3
:10283C0093F83D30FB737B685B8D9BB2002B2BD0E8
:10284C007B685B6A1A787B681B681A617B685B6AB9
:10285C005A1C7B685A627B685B8D9BB2013B9AB2B7
:10286C007B685A857B685B8D9BB2002B14D1FB7BFC
:10287C00292B11D17B681B685A687B681B6822F472
:10288C0080625A607B6821221A637B68282283F855
:10289C003D207868FFF7F9F900BF1037BD4680BDC1
:1028AC0080B483B000AF78607B685B8D9BB2002BEB
:1028BC0011D07B685B6A1A787B681B681A617B682D
:1028CC005B6A5A1C7B685A627B685B8D9BB2013BCE
:1028DC009AB27B685A8500BF0C37BD4680BC7047E6
:1028EC0080B584B000AF78607B6893F83D30FB73A3
:1028FC007B685B8D9BB2002B2CD07B681B681A69A4
:10290C007B685B6AD2B21A707B685B6A5A1C7B6804
:10291C005A627B685B8D9BB2013B9AB27B685A858D
:10292C007B685B8D9BB2002B14D1FB7B2A2B11D1C6
:10293C007B681B685A687B681B6822F480625A604B
:10294C007B6822221A637B68282283F83D207868F2
:10295C00FFF7A4F900BF1037BD4680BD80B483B02B
:10296C0000AF78607B685B8D9BB2002B12D07B68CC
:10297C001B681A697B685B6AD2B21A707B685B6AE7
:10298C005A1C7B685A627B685B8D9BB2013B9AB286
:10299C007B685A8500BF0C37BD4680BC704780B53C
:1029AC0084B000AF786039600023FB737B6893F8C8
:1029BC003D30DBB203F02803282B25D17B681B6844
:1029CC005A687B681B6822F480625A603B6803F08B
:1029DC000403002B01D10123FB733B6803F080033C
:1029EC00002B03D17B68DB68BB8102E07B689B69B1
:1029FC00BB817B68002283F83C20BA89FB7B19469B
:102A0C007868FDF795FC0EE00023BB607B681B68C3
:102A1C005B69BB607B681B689B69BB60BB687B6840
:102A2C00002283F83C2000BF1037BD4680BD00005B
:102A3C0080B584B000AF78607B6893F83D30FB7351
:102A4C007B681B685A687B681B6822F4E0625A60DA
:102A5C000023BB607B681B685B69BB607B681B6881
:102A6C001A687B681B6842F001021A60BB687B68BD
:102A7C001B681A687B681B6822F480621A607B688A
:102A8C001B685B6803F40063B3F5006F72D1FB7BCA
:102A9C00222B02D0FB7B2A2B35D17B689B6B1B68CE
:102AAC005B689AB27B685A857B685B8D9BB2002B06
:102ABC0005D07B681B6C43F004027B681A647B684E
:102ACC001B685A687B681B6822F400625A607B683A
:102ADC009B6B1846FEF72AF90346012B49D07B68FD
:102AEC009B6B694A5A637B689B6B1846FEF7A6F88A
:102AFC000346002B3DD07B689B6B5B6B7A68926BBB
:102B0C001046984735E07B685B6B1B685B689AB234
:102B1C007B685A857B685B8D9BB2002B05D07B68EC
:102B2C001B6C43F004027B681A647B681B685A6850
:102B3C007B681B6822F400625A607B685B6B1846EA
:102B4C00FEF7F4F80346012B14D07B685B6B4E4AFE
:102B5C005A637B685B6B1846FEF770F80346002BD4
:102B6C0008D07B685B6B5B6B7A68526B104698473E
:102B7C0000E000BF7B685B8D9BB2002B3ED07B6876
:102B8C001B685B6903F00403042B12D17B681B6880
:102B9C001A697B685B6AD2B21A707B685B6A5A1CD2
:102BAC007B685A627B685B8D9BB2013B9AB27B68F7
:102BBC005A857B681B685B6903F04003402B12D17C
:102BCC007B681B681A697B685B6AD2B21A707B6877
:102BDC005B6A5A1C7B685A627B685B8D9BB2013BBB
:102BEC009AB27B685A857B685B8D9BB2002B05D0B3
:102BFC007B681B6C43F004027B681A647B681B6C5B
:102C0C00002B03D0786800F0B7F839E0FB7B2A2B57
:102C1C0009D17B6800221A637B68282283F83D2047
:102C2C007868FFF73BF87B6893F83D30DBB2282BD4
:102C3C0011D17B68154ADA627B6800221A637B68C3
:102C4C00202283F83D207B68002283F83E207868A0
:102C5C00FDF762FB14E07B681B6B222B02D0FB7B25
:102C6C00222B0DD17B6800221A637B68202283F80B
:102C7C003D207B68002283F83E207868FFF70EF831
:102C8C0000BF1037BD4680BDE92F01080000FFFFD3
:102C9C0080B584B000AF78607B6893F83D30FB73EF
:102CAC007B68DB6ABB60BB68082B02D0BB68202B3F
:102CBC0029D1FB7B282B26D17B682E4ADA627B68D4
:102CCC001B685A687B681B6822F4E0625A607B6858
:102CDC001B686FF480625A617B681B681A687B689A
:102CEC001B6822F480621A607B6800221A637B687E
:102CFC00202283F83D207B68002283F83E207868F0
:102D0C00FDF70AFB31E0FB7B212B29D17B68194AAB
:102D1C00DA627B6821221A637B68202283F83D20CB
:102D2C007B68002283F83E207B681B685A687B68AE
:102D3C001B6822F4E0625A607B681B686FF4806247
:102D4C005A617B681B681A687B681B6822F4806276
:102D5C001A607868FEF760FC7868FEF796FF04E06E
:102D6C007B681B686FF480625A6100BF1037BD46E8
:102D7C0080BD00BF0000FFFF80B584B000AF78605D
:102D8C007B6893F83D30FB737B6893F83E30BB73E4
:102D9C00BB7B102B02D0BB7B402B0AD1FB7B222BA5
:102DAC0007D17B681B681A687B681B6822F4006279
:102DBC001A60FB7B03F02803282B07D17B680022C9
:102DCC001A637B68282283F83D2015E07B681B681A
:102DDC005B6803F40063B3F5006F0AD0FB7B602BD8
:102DEC0007D07B68202283F83D207B68002283F883
:102DFC003E207B6800221A637B681B685B6803F4C7
:102E0C000063B3F5006F62D17B681B685A687B68FE
:102E1C001B6822F400625A607B685B6B93F821306C
:102E2C00DBB2012B20D07B685B6B6A4A5A637B68F0
:102E3C005B6B1846FDF702FF0346002B00F0898000
:102E4C007B681B681A687B681B6822F001021A6099
:102E5C007B68202283F83D207B685B6B5B6B7A6818
:102E6C00526B1046984774E07B689B6B594A5A63C7
:102E7C007B689B6B1846FDF7E1FE0346002B68D080
:102E8C007B681B685B6903F04003402B0BD17B68AC
:102E9C001B681A697B685B6AD2B21A707B685B6AC2
:102EAC005A1C7B685A627B681B681A687B681B68B3
:102EBC0022F001021A607B68202283F83D207B6897
:102ECC009B6B5B6B7A68926B1046984741E07B6812
:102EDC0093F83D30DBB2602B25D17B68202283F840
:102EEC003D207B6800221A647B681B685B6903F0D9
:102EFC004003402B0BD17B681B681A697B685B6AAB
:102F0C00D2B21A707B685B6A5A1C7B685A627B6807
:102F1C001B681A687B681B6822F001021A607868CB
:102F2C00FEF7E0FE15E07B681B685B6903F040036D
:102F3C00402B0BD17B681B681A697B685B6AD2B229
:102F4C001A707B685B6A5A1C7B685A627868FEF759
:102F5C00C0FE7B681B6CBB60BB6803F00103002BDD
:102F6C000ED1BB6803F00203002B09D1BB6803F040
:102F7C000403002B04D1BB6803F00803002B07D01B
:102F8C007B681B685A687B681B6822F4E0625A6095
:102F9C007B6893F83D30FB737B681B6C03F0040378
:102FAC00042B13D1FB7B282B10D17B680A4ADA62E5
:102FBC007B6800221A637B68202283F83D207B68A3
:102FCC00002283F83E207868FDF7A6F900BF103781
:102FDC00BD4680BDE92F01080000FFFF80B586B01B
:102FEC0000AF78600023FB607B685B6A7B617B6968
:102FFC0093F83D30FB744B4B1B68DB084A4AA2FB31
:10300C0003231A0A13469B001344DA00D31AFB60FD
:10301C00FB68002B06D17B691B6C43F020027B699B
:10302C001A640AE0FB68013BFB607B691B681B6848
:10303C0003F40073B3F5007FEAD07B695B6B002B64
:10304C0003D07B695B6B00229A627B699B6B002BC4
:10305C0003D07B699B6B00229A627B691B681A68A0
:10306C007B691B6822F480621A607B6900225A8596
:10307C007B695B6B002B03D07B695B6B00225A6313
:10308C007B699B6B002B03D07B699B6B00225A6383
:10309C007B691B681A687B691B6822F001021A6045
:1030AC007B6993F83D30DBB2602B0ED17B6920221B
:1030BC0083F83D207B69002283F83E207B69002247
:1030CC001A647869FEF70EFE27E0FB7C03F02803F8
:1030DC00282B17D17B691B681A687B691B6842F027
:1030EC0001021A607B691B681A687B691B6842F4D1
:1030FC0080621A607B6900221A637B69282283F83C
:10310C003D2007E07B69202283F83D207B6900226B
:10311C0083F83E207869FEF7DCFD00BF1837BD460A
:10312C0080BD00BF0000002089B5F81480B485B0C4
:10313C0000AF78600023FB60134B1B68DB08134A5D
:10314C00A2FB03231A0A13469B001344FB60FB6883
:10315C00013BFB60FB68002B07D17B681B6C43F0C9
:10316C0020027B681A64012308E07B681B681B68DB
:10317C0003F40073B3F5007FE9D00023184614372D
:10318C00BD4680BC704700BF0000002089B5F81414
:10319C0080B483B000AF78607B68DB6AB3F52A0F2C
:1031AC0003D17B680122DA6207E07B68DB6AB3F14A
:1031BC002A4F02D17B680822DA6200BF0C37BD4669
:1031CC0080BC704780B586B000AF78607B68002B00
:1031DC0001D1012372E27B681B6803F00103002B11
:1031EC0000F08780924B5B6803F00C03042B0CD02F
:1031FC008F4B5B6803F00C03082B12D18C4B5B6874
:10320C0003F48033B3F5803F0BD1894B1B6803F477
:10321C000033002B6CD07B685B68002B68D10123DA
:10322C004CE27B685B68B3F5803F06D1804B1B6832
:10323C007F4A43F4803313602EE07B685B68002B7D
:10324C000CD17B4B1B687A4A23F480331360784B88
:10325C001B68774A23F4802313601DE07B685B684E
:10326C00B3F5A02F0CD1724B1B68714A43F4802329
:10327C0013606F4B1B686E4A43F4803313600BE092
:10328C006B4B1B686A4A23F480331360684B1B68D2
:10329C00674A23F4802313607B685B68002B13D090
:1032AC00FDF7B4FB386108E0FDF7B0FB02463B6963
:1032BC00D31A642B01D9032300E25D4B1B6803F482
:1032CC000033002BF0D014E0FDF7A0FB386108E0D0
:1032DC00FDF79CFB02463B69D31A642B01D90323EF
:1032EC00ECE1534B1B6803F40033002BF0D100E0EE
:1032FC0000BF7B681B6803F00203002B63D04C4BB0
:10330C005B6803F00C03002B0BD0494B5B6803F09C
:10331C000C03082B1CD1464B5B6803F48033002B49
:10332C0016D1434B1B6803F00203002B05D07B68BE
:10333C001B69012B01D00123C0E13D4B1B6823F01D
:10334C00F8027B685B69DB00394913430B603AE098
:10335C007B681B69002B20D0364B01221A60FDF7CD
:10336C0055FB386108E0FDF751FB02463B69D31A67
:10337C00022B01D90323A1E12D4B1B6803F002039F
:10338C00002BF0D02A4B1B6823F0F8027B685B699A
:10339C00DB00274913430B6015E0264B00221A6013
:1033AC00FDF734FB386108E0FDF730FB02463B6962
:1033BC00D31A022B01D9032380E11D4B1B6803F0A8
:1033CC000203002BF0D17B681B6803F00803002B71
:1033DC003AD07B689B69002B19D0174B01221A60DD
:1033EC00FDF714FB386108E0FDF710FB02463B6962
:1033FC00D31A022B01D9032360E10D4B5B6A03F056
:10340C000203002BF0D0012000F0BAFA1CE00A4BAA
:10341C0000221A60FDF7FAFA38610FE0FDF7F6FAB0
:10342C0002463B69D31A022B08D9032346E100BF9D
:10343C00001002400000424280044242924B5B6A00
:10344C0003F00203002BE9D17B681B6803F0040333
:10345C00002B00F0A6800023FB758B4BDB6903F07F
:10346C008053002B0DD1884BDB69874A43F0805386
:10347C00D361854BDB6903F08053BB60BB680123D0
:10348C00FB75824B1B6803F48073002B18D17F4BA8
:10349C001B687E4A43F480731360FDF7B7FA3861FA
:1034AC0008E0FDF7B3FA02463B69D31A642B01D945
:1034BC00032303E1754B1B6803F48073002BF0D0DE
:1034CC007B68DB68012B06D16F4B1B6A6E4A43F09D
:1034DC00010313622DE07B68DB68002B0CD16A4B77
:1034EC001B6A694A23F001031362674B1B6A664A25
:1034FC0023F0040313621CE07B68DB68052B0CD102
:10350C00614B1B6A604A43F0040313625E4B1B6AF7
:10351C005D4A43F0010313620BE05B4B1B6A5A4A92
:10352C0023F001031362584B1B6A574A23F0040320
:10353C0013627B68DB68002B15D0FDF767FA3861E6
:10354C000AE0FDF763FA02463B69D31A41F288326E
:10355C00934201D90323B1E04B4B1B6A03F00203E6
:10356C00002BEED014E0FDF751FA38610AE0FDF7BC
:10357C004DFA02463B69D31A41F28832934201D983
:10358C0003239BE0404B1B6A03F00203002BEED19C
:10359C00FB7D012B05D13C4BDB693B4A23F080536F
:1035AC00D3617B68DB69002B00F08780364B5B684E
:1035BC0003F00C03082B61D07B68DB69022B46D12E
:1035CC00334B00221A60FDF721FA386108E0FDF751
:1035DC001DFA02463B69D31A022B01D903236DE075
:1035EC00294B1B6803F00073002BF0D17B681B6A1E
:1035FC00B3F5803F08D1244B5B6823F400327B6821
:10360C009B68214913434B601F4B5B6823F4741276
:10361C007B68196A7B685B6A0B431B4913434B60DD
:10362C001B4B01221A60FDF7F1F9386108E0FDF738
:10363C00EDF902463B69D31A022B01D903233DE075
:10364C00114B1B6803F00073002BF0D035E0104BCE
:10365C0000221A60FDF7DAF9386108E0FDF7D6F9B7
:10366C0002463B69D31A022B01D9032326E0064BF1
:10367C001B6803F00073002BF0D11EE07B68DB6944
:10368C00012B07D1012319E000100240007000400B
:10369C00600042420B4B5B68FB60FB6803F48032BA
:1036AC007B681B6A9A4206D1FB6803F470127B6834
:1036BC005B6A9A4201D0012300E0002318461837B8
:1036CC00BD4680BD0010024080B584B000AF78606C
:1036DC0039607B68002B01D10123D0E06A4B1B6859
:1036EC0003F007033A689A4210D9674B1B6823F022
:1036FC00070265493B6813430B60634B1B6803F07F
:10370C0007033A689A4201D00123B8E07B681B6832
:10371C0003F00203002B20D07B681B6803F004032A
:10372C00002B05D0594B5B68584A43F4E063536057
:10373C007B681B6803F00803002B05D0534B5B68B8
:10374C00524A43F460535360504B5B6823F0F002D1
:10375C007B689B684D4913434B607B681B6803F087
:10376C000103002B40D07B685B68012B07D1474BD2
:10377C001B6803F40033002B15D101237FE07B6819
:10378C005B68022B07D1414B1B6803F00073002BC5
:10379C0009D1012373E03D4B1B6803F00203002B9E
:1037AC0001D101236BE0394B5B6823F003027B688A
:1037BC005B68364913434B60FDF728F9F8600AE063
:1037CC00FDF724F90246FB68D31A41F28832934282
:1037DC0001D9032353E02D4B5B6803F00C027B688B
:1037EC005B689B009A42EBD1274B1B6803F00703E5
:1037FC003A689A4210D2244B1B6823F007022249E4
:10380C003B6813430B60204B1B6803F007033A68BB
:10381C009A4201D0012332E07B681B6803F0040359
:10382C00002B08D0194B5B6823F4E0627B68DB68E3
:10383C00164913434B607B681B6803F00803002B8D
:10384C0009D0124B5B6823F460527B681B69DB0068
:10385C000E4913434B6000F021F802460B4B5B689A
:10386C001B0903F00F030A49CB5C22FA03F3094A44
:10387C001360094B1B681846FDF786F800231846A1
:10388C001037BD4680BD00BF002002400010024032
:10389C00B4480108000000200400002080B487B068
:1038AC0000AF0023FB600023BB6000237B6100237F
:1038BC007B6000233B611E4B5B68FB60FB6803F085
:1038CC000C03042B02D0082B03D027E0194B3B61CF
:1038DC0027E0FB689B0C03F00F03174AD35C7B605B
:1038EC00FB6803F48033002B10D0114B5B685B0C2E
:1038FC0003F00103114AD35CBB607B680D4A03FBE8
:10390C0002F2BB68B2FBF3F37B6104E07B680C4A08
:10391C0002FB03F37B617B693B6102E0054B3B617E
:10392C0000BF3B6918461C37BD4680BC704700BFC2
:10393C000010024000127A00CC480108DC48010853
:10394C0000093D0080B400AF024B1B681846BD4611
:10395C0080BC70470000002080B500AFFFF7F2FF7D
:10396C000246054B5B681B0A03F007030349CB5C5B
:10397C0022FA03F3184680BD00100240C448010827
:10398C0080B485B000AF78600A4B1B680A4AA2FB72
:10399C0003235B0A7A6802FB03F3FB6000BFFB683E
:1039AC005A1EFA60002BF9D100BF00BF1437BD4678
:1039BC0080BC704700000020D34D621080B582B0EF
:1039CC0000AF78607B68002B01D1012341E07B685C
:1039DC0093F83D30DBB2002B06D17B68002283F8D4
:1039EC003C207868FCF7F4FE7B68022283F83D20CB
:1039FC007B681A687B6804331946104600F040F95E
:103A0C007B68012283F846207B68012283F83E20E4
:103A1C007B68012283F83F207B68012283F84020D9
:103A2C007B68012283F841207B68012283F84220C5
:103A3C007B68012283F843207B68012283F84420B1
:103A4C007B68012283F845207B68012283F83D20A6
:103A5C00002318460837BD4680BD000080B485B0F1
:103A6C0000AF78607B6893F83D30DBB2012B01D05E
:103A7C00012332E07B68022283F83D207B681B68BF
:103A8C00184A93420ED07B681B68B3F1804F09D063
:103A9C007B681B68144A934204D07B681B68134AEA
:103AAC00934211D17B681B689B6803F00703FB6092
:103ABC00FB68062B10D07B681B681A687B681B6838
:103ACC0042F001021A6007E07B681B681A687B6889
:103ADC001B6842F001021A60002318461437BD46D9
:103AEC0080BC7047002C01400004004000080040DE
:103AFC0080B584B000AF786039600023FB737B68BD
:103B0C0093F83C30012B01D10223B4E07B680122F5
:103B1C0083F83C207B68022283F83D207B681B687D
:103B2C009B68BB60BB6823F07703BB60BB6823F466
:103B3C007F43BB607B681B68BA689A603B681B68F4
:103B4C00B3F5005F3ED0B3F5005F00F28780B3F5AC
:103B5C00805F00F08680B3F5805F7FD8702B1AD021
:103B6C00702B7BD8602B50D0602B77D8502B3CD04F
:103B7C00502B73D8402B58D0402B6FD8302B64D09F
:103B8C00302B6BD8202B60D0202B67D8002B5CD02F
:103B9C00102B5AD062E07B6818683B6899683B68C8
:103BAC005A683B68DB6800F044F97B681B689B68CB
:103BBC00BB60BB6843F07703BB607B681B68BA686B
:103BCC009A604FE07B6818683B6899683B685A6854
:103BDC003B68DB6800F02DF97B681B689A687B6892
:103BEC001B6842F480429A603CE07B6818683B6832
:103BFC0059683B68DB681A4600F0A4F87B681B68C0
:103C0C005021184600F0FBF82CE07B6818683B68E4
:103C1C0059683B68DB681A4600F0C2F87B681B6881
:103C2C006021184600F0EBF81CE07B6818683B68D4
:103C3C0059683B68DB681A4600F084F87B681B689F
:103C4C004021184600F0DBF80CE07B681A683B68F2
:103C5C001B681946104600F0D2F803E00123FB73F1
:103C6C0000E000BF7B68012283F83D207B680022C6
:103C7C0083F83C20FB7B18461037BD4680BD000006
:103C8C0080B485B000AF786039607B681B68FB60DE
:103C9C007B68294A93420BD07B68B3F1804F07D0E5
:103CAC007B68264A934203D07B68254A934208D10D
:103CBC00FB6823F07003FB603B685B68FA68134396
:103CCC00FB607B681C4A93420BD07B68B3F1804F3E
:103CDC0007D07B68194A934203D07B68184A9342F9
:103CEC0008D1FB6823F44073FB603B68DB68FA681F
:103CFC001343FB60FB6823F080023B685B69134352
:103D0C00FB607B68FA681A603B689A687B68DA62C9
:103D1C003B681A687B689A627B68074A934203D1B6
:103D2C003B681A697B681A637B6801225A6100BF81
:103D3C001437BD4680BC7047002C01400004004085
:103D4C000008004080B487B000AFF860B9607A60BA
:103D5C00FB681B6A7B61FB681B6A23F00102FB6832
:103D6C001A62FB689B693B613B6923F0F0033B6182
:103D7C007B681B013A6913433B617B6923F00A039F
:103D8C007B617A69BB6813437B61FB683A699A6112
:103D9C00FB687A691A6200BF1C37BD4680BC70474D
:103DAC0080B487B000AFF860B9607A60FB681B6ABA
:103DBC007B61FB681B6A23F01002FB681A62FB68CC
:103DCC009B693B613B6923F470433B617B681B033C
:103DDC003A6913433B617B6923F0A0037B61BB68A9
:103DEC001B017A6913437B61FB683A699A61FB6832
:103DFC007A691A6200BF1C37BD4680BC704780B41C
:103E0C0085B000AF786039607B689B68FB60FB68AD
:103E1C0023F07003FB603A68FB68134343F007031D
:103E2C00FB607B68FA689A6000BF1437BD4680BCA3
:103E3C00704780B487B000AFF860B9607A603B60BF
:103E4C00FB689B687B617B6923F47F437B613B68E8
:103E5C001A027B681A43BB6813437A6913437B616C
:103E6C00FB687A699A6000BF1C37BD4680BC7047FE
:103E7C0080B485B000AF786039607B6893F83C30D3
:103E8C00012B01D1022346E07B68012283F83C2000
:103E9C007B68022283F83D207B681B685B68FB60B3
:103EAC007B681B689B68BB60FB6823F07003FB603E
:103EBC003B681B68FA681343FB607B681B68FA68F5
:103ECC005A607B681B68164A93420ED07B681B684D
:103EDC00B3F1804F09D07B681B68124A934204D01F
:103EEC007B681B68104A93420CD1BB6823F080039B
:103EFC00BB603B685B68BA681343BB607B681B683C
:103F0C00BA689A607B68012283F83D207B680022A6
:103F1C0083F83C20002318461437BD4680BC7047FC
:103F2C00002C014000040040000800400EB46FF06B
:103F3C00004100B59CB01DAB029006900791049116
:103F4C000848094953F8042B0591006802A901930C
:103F5C0000F092F90022029B1A701CB05DF804EB81
:103F6C0003B070470C0000200802FFFF0346024418
:103F7C00934200D1704703F8011BF9E7014B186815
:103F8C00704700BF0C00002070B500260C4D0D4C86
:103F9C00641BA410A64209D100F078FC00260A4D3F
:103FAC000A4C641BA410A64205D170BD55F8043B05
:103FBC0098470136EEE755F8043B98470136F2E78F
:103FCC001449010814490108144901081849010849
:103FDC007047704738B50546002940D051F8043C6D
:103FEC000C1F002BB8BFE41800F0DEF81C4A136855
:103FFC0033B9636014602846BDE8384000F0DAB885
:10400C00A34208D9206821188B4201BF19685B684C
:10401C0009182160EDE71A465B680BB1A342FAD987
:10402C0011685018A0420BD12068014450188342EB
:10403C001160E0D118685B68084410605360DAE7DF
:10404C0002D90C232B60D6E7206821188B4201BFC4
:10405C0019685B680918216063605460CBE738BD50
:10406C009C02002070B50F4E0C463168054611B904
:10407C0000F0AAFB30602146284600F0A5FB431C4B
:10408C0003D14FF0FF34204670BDC41C24F0030450
:10409C00A042F8D0211A284600F096FB0130F2D14C
:1040AC00EFE700BF980200202DE9F843CD1C25F066
:1040BC00030508350C2D38BF0C25002D064601DBF9
:1040CC00A94204D90C2333600020BDE8F883DFF843
:1040DC00D48000F069F8D8F800301C4644BB29465F
:1040EC003046FFF7BFFF431C044658D1D8F80040B8
:1040FC002746002F43D1002C4BD02368394630463D
:10410C0004EB030900F060FB814542D12168304685
:10411C006D1A2946FFF7A6FF01303AD023682B44CD
:10412C002360D8F800305A6862BBC8F800700FE002
:10413C002268521B20D40B2A17D96119A34225607F
:10414C0018BF5960636808BFC8F8001062514B6013
:10415C00304600F02FF804F10B00231D20F007006F
:10416C00C21A1CBF1B1AA350AFE76268A3420CBF54
:10417C00C8F800205A60EBE723466468AEE73C467B
:10418C007F68B6E71A465B68A342FBD100235360F5
:10419C00DEE70C233046336000F00CF894E7056042
:1041AC00D6E700BF9C0200200148FFF711BF00BFFB
:1041BC00940200200148FFF70CBF00BF94020020BE
:1041CC002DE9F0471F468E688246BE420C4690464B
:1041DC000B682DD8B1F90C2012F4906F26D06569BC
:1041EC00096905EB4505A3EB010905EBD5757B1CAE
:1041FC004B446D109D4238BF1D46530527D52946AB
:10420C00FFF752FF064660B34A46216900F0FAFAFE
:10421C00A38923F4906343F08003A38126614E4469
:10422C0026603E466561A5EB0905A560BE4200D936
:10423C003E4632464146206800F0ACFA0020A368A6
:10424C009B1BA360236833442360BDE8F0872A4698
:10425C0000F0E6FA06460028E0D150462169FFF747
:10426C00B9FE0C23CAF80030A3894FF0FF3043F09D
:10427C004003A381E9E700002DE9F04F98468B89B4
:10428C0007461B060D4614469DB010D50B6973B935
:10429C004021FFF709FF2860286130B90C233B60EF
:1042AC004FF0FF301DB0BDE8F08F40236B61002351
:1042BC00099320238DF8293030234FF00109CDF8D4
:1042CC000C80DFF898818DF82A3023469A4613F833
:1042DC00012B0AB1252AF9D1BAEB040B0BD05B46A2
:1042EC00224629463846FFF76BFF013000F0A780C5
:1042FC00099A5A4409929AF80030002B00F09F80DA
:10430C0000234FF0FF32CDE905230AF1010A049393
:10431C0007938DF853301A935446052214F8011B59
:10432C004E4800F061FA049AD8B9D00644BF202355
:10433C008DF85330110744BF2B238DF853309AF866
:10434C0000302A2B15D0544600204FF00A0C079A47
:10435C00214611F8013B303B092B4BD9B0B10792E8
:10436C0014E0A0EB080309FA03F31343A2460493E9
:10437C00D2E7039B191D1B680391002BBBBF5B424B
:10438C0042F0020207930793B8BF049223782E2BB6
:10439C000AD163782A2B32D1039B02341A1D1B6875
:1043AC00039243EAE3730593DFF8B4A0032250466B
:1043BC00217800F019FA38B14022049BA0EB0A00D6
:1043CC00824013430134049314F8011B0622254840
:1043DC008DF8281000F008FA002836D0224B1BBBB1
:1043EC00039B073323F0070308330393099B3344E0
:1043FC0009936AE70C4601200CFB0232A8E7002364
:10440C004FF00A0C194601340593204610F8012B85
:10441C00303A092A03D9002BC6D00591C4E70446CB
:10442C0001230CFB0121F0E703AB00932A4638462D
:10443C000E4B04A9AFF30080421C0646D6D1AB89C3
:10444C005B063FF52DAF09982CE703AB00932A468A
:10445C003846064B04A900F07DF8EDE7DE4801086C
:10446C00E4480108E848010800000000CD410108BB
:10447C002DE9F047164698468A680B690746934221
:10448C00B8BF1346336091F843200C46DDF82090FA
:10449C000AB1013333602368990642BF3368023393
:1044AC003360256815F0060506D104F1190AE36896
:1044BC0032689B1AAB422BDC94F843302268003BE9
:1044CC0018BF0123920630D44146384604F143020A
:1044DC00C847013023D02368226903F00603042B5C
:1044EC0014BF002533684FF0000608BFE56804F1DF
:1044FC001A0408BFED1A54F8123C08BF25EAE575FA
:10450C009342C4BF9B1AED18B5421AD1002008E0A3
:10451C000123524641463846C847013003D14FF07B
:10452C00FF30BDE8F0870135C1E73020E11881F894
:10453C0043005A1C94F845102244023382F843106D
:10454C00C2E70123224641463846C8470130E6D02F
:10455C000136D9E72DE9FF470F7E9146782F80462B
:10456C000C469A460C9E01F1430207D8622F0AD8DA
:10457C00002F00F0D380582F00F0BA8004F14206CF
:10458C0084F842703AE0A7F16303152BF6D801A129
:10459C0051F823F0F94501080D4601088945010839
:1045AC008945010889450108894501080D4601081E
:1045BC008945010889450108894501088945010893
:1045CC000F47010837460108C9460108894501080B
:1045DC00894501083147010889450108374601081A
:1045EC008945010889450108D146010833681A1D1F
:1045FC001B68326004F1420684F8423001239EE0CD
:10460C0033682068191D3160060601D51D6803E06A
:10461C004506FBD5B3F90050002D03DA2D236D426E
:10462C0084F843300A23594811E02168336808069E
:10463C0053F8045B02D4490648BFADB26F2F336008
:10464C0014BF0A2308235148002184F843106668DC
:10465C00002EA8BF2168A660A4BF21F00401216030
:10466C000DB9002E4BD01646B5FBF3F103FB1157D9
:10467C00C75D06F8017D2F46BB420D46F4D9082BC9
:10468C000BD12368DF0708D5236961689942DEBF27
:10469C00302306F8013C06F1FF36921B22614B4693
:1046AC0021464046CDF800A003AAFFF7E1FE0130F9
:1046BC004AD14FF0FF3004B0BDE8F087236843F0D7
:1046CC00200323607827324884F8457023683168CA
:1046DC001F0651F8045B02D45F0648BFADB23160CF
:1046EC00D90744BF43F0200323601DB11023ABE76F
:1046FC002648E9E7236823F020032360F6E71646F3
:10470C00BDE733682568181D616930602E061B688B
:10471C0001D5196002E06806FBD519800023164606
:10472C002361BCE7336800211A1D32601E68626881
:10473C00304600F059F808B1801B60606368236153
:10474C00002384F84330AAE73246494640462369A1
:10475C00D0470130ADD023689B0713D4E068039B8E
:10476C009842B8BF1846A6E7012332464946404650
:10477C00D04701309DD00135E36803995B1AAB42F9
:10478C00F2DCEBE7002504F11906F5E7EF48010828
:10479C0000490108884210B501EB020402D9844299
:1047AC00234607D8431EA14208D011F8012B03F869
:1047BC00012FF8E7014602448A4200D110BD13F8DC
:1047CC00014D02F8014DF7E738B50023054D0446BD
:1047DC0008462B60FCF758F8431C02D12B6803B138
:1047EC00236038BD90020020034610B5C9B20244C4
:1047FC009342184601D1002003E0047801338C4227
:10480C00F6D110BD0A44914200F1FF3300D170473C
:10481C0010B511F8014B914203F8014FF9D110BDBD
:10482C002DE9F041804615460C4621B91146BDE8EC
:10483C00F041FFF739BC2AB9FFF7CCFB0024204626
:10484C00BDE8F08100F01AF88542064602D8B5EBB7
:10485C00500FF4D829464046FFF726FC074600289F
:10486C00ECD0B5422A46214628BF3246FFF7CAFF94
:10487C0021464046FFF7AEFB3C46E0E751F8043CCE
:10488C00181F002BBCBF0B58C0187047F8B500BFE1
:10489C00F8BC08BC9E467047F8B500BFF8BC08BC15
:0448AC009E4670476D
:1048B0002564000000000000000000000102030465
:1048C00006070809000000000102030402030405B2
:1048D000060708090A0B0C0D0E0F10100102232DFC
:1048E000302B2000686C4C006566674546470030F9
:1048F0003132333435363738394142434445460046
:104900003031323334353637383961626364656645
:0449100000000000A3
:044914003101010864
:044918000D01010884
:10491C000024F40010000000010000001000002032
:10492C000000000058010020C001002028020020D7
:10493C00000000000000000000000000000000006B
:10494C00000000000000000000000000000000005B
:10495C00000000000000000000000000000000004B
:0C496C000000000000000000000000003F
:040000050801091DC8
:00000001FF
